{
  "contractName": "Guardian",
  "abi": [
    {
      "inputs": [],
      "name": "guardianCounter",
      "outputs": [
        {
          "internalType": "uint256",
          "name": "",
          "type": "uint256"
        }
      ],
      "stateMutability": "view",
      "type": "function"
    },
    {
      "inputs": [
        {
          "internalType": "uint256",
          "name": "",
          "type": "uint256"
        }
      ],
      "name": "guardians",
      "outputs": [
        {
          "internalType": "address",
          "name": "guardian",
          "type": "address"
        },
        {
          "internalType": "bool",
          "name": "isGuardianProposed",
          "type": "bool"
        }
      ],
      "stateMutability": "view",
      "type": "function"
    },
    {
      "inputs": [],
      "name": "owner",
      "outputs": [
        {
          "internalType": "address",
          "name": "",
          "type": "address"
        }
      ],
      "stateMutability": "view",
      "type": "function"
    },
    {
      "inputs": [
        {
          "internalType": "address",
          "name": "_address",
          "type": "address"
        }
      ],
      "name": "setGuardians",
      "outputs": [],
      "stateMutability": "nonpayable",
      "type": "function"
    },
    {
      "inputs": [
        {
          "internalType": "address",
          "name": "_address",
          "type": "address"
        },
        {
          "internalType": "uint256",
          "name": "_index",
          "type": "uint256"
        }
      ],
      "name": "updateGuardians",
      "outputs": [],
      "stateMutability": "nonpayable",
      "type": "function"
    },
    {
      "inputs": [
        {
          "internalType": "address",
          "name": "_address",
          "type": "address"
        }
      ],
      "name": "setIsGuardianProposed",
      "outputs": [],
      "stateMutability": "nonpayable",
      "type": "function"
    },
    {
      "inputs": [],
      "name": "resetAllGuardianProposed",
      "outputs": [],
      "stateMutability": "nonpayable",
      "type": "function"
    }
  ],
  "bytecode": "0x6080604052600560015534801561001557600080fd5b50336000806101000a81548173ffffffffffffffffffffffffffffffffffffffff021916908373ffffffffffffffffffffffffffffffffffffffff160217905550610c6a806100656000396000f3fe608060405234801561001057600080fd5b506004361061007d5760003560e01c80638da5cb5b1161005b5780638da5cb5b146100c6578063dac1b303146100e4578063dd4bad7f14610100578063f560c7341461011c5761007d565b806340aad3cd146100825780635c03f7ac1461008c5780636f29e7c2146100aa575b600080fd5b61008a61014d565b005b6100946101c9565b6040516100a19190610726565b60405180910390f35b6100c460048036038101906100bf91906107a4565b6101cf565b005b6100ce6102b8565b6040516100db91906107e0565b60405180910390f35b6100fe60048036038101906100f991906107a4565b6102dc565b005b61011a60048036038101906101159190610827565b610473565b005b61013660048036038101906101319190610867565b6105ef565b6040516101449291906108af565b60405180910390f35b60005b6002548110156101c6576003600082815260200190815260200160002060000160149054906101000a900460ff16156101b35760006003600083815260200190815260200160002060000160146101000a81548160ff0219169083151502179055505b80806101be90610907565b915050610150565b50565b60025481565b60006101da82610640565b5090506000811215610221576040517f08c379a0000000000000000000000000000000000000000000000000000000008152600401610218906109ac565b60405180910390fd5b6003600082815260200190815260200160002060000160149054906101000a900460ff1615610285576040517f08c379a000000000000000000000000000000000000000000000000000000000815260040161027c90610a18565b60405180910390fd5b60016003600083815260200190815260200160002060000160146101000a81548160ff0219169083151502179055505050565b60008054906101000a900473ffffffffffffffffffffffffffffffffffffffff1681565b8060008054906101000a900473ffffffffffffffffffffffffffffffffffffffff1673ffffffffffffffffffffffffffffffffffffffff163373ffffffffffffffffffffffffffffffffffffffff161461036b576040517f08c379a000000000000000000000000000000000000000000000000000000000815260040161036290610a84565b60405180910390fd5b600061037682610640565b915050806103b9576040517f08c379a00000000000000000000000000000000000000000000000000000000081526004016103b090610af0565b60405180910390fd5b600154600254106103ff576040517f08c379a00000000000000000000000000000000000000000000000000000000081526004016103f690610b82565b60405180910390fd5b8260036000600254815260200190815260200160002060000160006101000a81548173ffffffffffffffffffffffffffffffffffffffff021916908373ffffffffffffffffffffffffffffffffffffffff1602179055506002600081548092919061046990610907565b9190505550505050565b8160008054906101000a900473ffffffffffffffffffffffffffffffffffffffff1673ffffffffffffffffffffffffffffffffffffffff163373ffffffffffffffffffffffffffffffffffffffff1614610502576040517f08c379a00000000000000000000000000000000000000000000000000000000081526004016104f990610a84565b60405180910390fd5b600061050d82610640565b91505080610550576040517f08c379a000000000000000000000000000000000000000000000000000000000815260040161054790610af0565b60405180910390fd5b6002548310610594576040517f08c379a000000000000000000000000000000000000000000000000000000000815260040161058b90610c14565b60405180910390fd5b836003600085815260200190815260200160002060000160006101000a81548173ffffffffffffffffffffffffffffffffffffffff021916908373ffffffffffffffffffffffffffffffffffffffff16021790555050505050565b60036020528060005260406000206000915090508060000160009054906101000a900473ffffffffffffffffffffffffffffffffffffffff16908060000160149054906101000a900460ff16905082565b60008060007fffffffffffffffffffffffffffffffffffffffffffffffffffffffffffffffff905060006001905060005b6002548110156106ff578573ffffffffffffffffffffffffffffffffffffffff166003600083815260200190815260200160002060000160009054906101000a900473ffffffffffffffffffffffffffffffffffffffff1673ffffffffffffffffffffffffffffffffffffffff16036106ec57809250600091505b80806106f790610907565b915050610671565b508181935093505050915091565b6000819050919050565b6107208161070d565b82525050565b600060208201905061073b6000830184610717565b92915050565b600080fd5b600073ffffffffffffffffffffffffffffffffffffffff82169050919050565b600061077182610746565b9050919050565b61078181610766565b811461078c57600080fd5b50565b60008135905061079e81610778565b92915050565b6000602082840312156107ba576107b9610741565b5b60006107c88482850161078f565b91505092915050565b6107da81610766565b82525050565b60006020820190506107f560008301846107d1565b92915050565b6108048161070d565b811461080f57600080fd5b50565b600081359050610821816107fb565b92915050565b6000806040838503121561083e5761083d610741565b5b600061084c8582860161078f565b925050602061085d85828601610812565b9150509250929050565b60006020828403121561087d5761087c610741565b5b600061088b84828501610812565b91505092915050565b60008115159050919050565b6108a981610894565b82525050565b60006040820190506108c460008301856107d1565b6108d160208301846108a0565b9392505050565b7f4e487b7100000000000000000000000000000000000000000000000000000000600052601160045260246000fd5b60006109128261070d565b91507fffffffffffffffffffffffffffffffffffffffffffffffffffffffffffffffff8203610944576109436108d8565b5b600182019050919050565b600082825260208201905092915050565b7f50726f706f736564206973206e6f7420477561726469616e0000000000000000600082015250565b600061099660188361094f565b91506109a182610960565b602082019050919050565b600060208201905081810360008301526109c581610989565b9050919050565b7f477561726469616e20616c72656164792050726f706f73656421000000000000600082015250565b6000610a02601a8361094f565b9150610a0d826109cc565b602082019050919050565b60006020820190508181036000830152610a31816109f5565b9050919050565b7f4e6f742061204f776e6572000000000000000000000000000000000000000000600082015250565b6000610a6e600b8361094f565b9150610a7982610a38565b602082019050919050565b60006020820190508181036000830152610a9d81610a61565b9050919050565b7f477561726469616e20616c726561647920457869737473210000000000000000600082015250565b6000610ada60188361094f565b9150610ae582610aa4565b602082019050919050565b60006020820190508181036000830152610b0981610acd565b9050919050565b7f477561726469616e20636f756e742063616e6e2774206d6f7265207468616e2060008201527f3500000000000000000000000000000000000000000000000000000000000000602082015250565b6000610b6c60218361094f565b9150610b7782610b10565b604082019050919050565b60006020820190508181036000830152610b9b81610b5f565b9050919050565b7f496e64657820636f756e742063616e6e2774206d6f7265207468616e206f722060008201527f657175616c20746f20677561726469616e436f756e7465720000000000000000602082015250565b6000610bfe60388361094f565b9150610c0982610ba2565b604082019050919050565b60006020820190508181036000830152610c2d81610bf1565b905091905056fea264697066735822122008478e944ae583bd9ebd6d874cd1898ca9746aca26ec714271f6e6a210a0ceac64736f6c63430008130033",
  "immutableReferences": {},
  "source": "//SPDX-License-Identifier: UNLICENSED\r\n\r\npragma solidity 0.8.19;\r\n\r\nimport \"./Ownable.sol\";\r\n\r\ncontract Guardian is ownable{\r\n\r\n    // ------------------------------------------------------------\r\n\r\n    uint maxGuardian = 5;\r\n    uint public guardianCounter;\r\n\r\n    struct guardianData{\r\n        address guardian;\r\n        bool isGuardianProposed;\r\n    }\r\n    mapping (uint => guardianData) public guardians;\r\n\r\n    modifier isGuardian(address _address){\r\n        require(msg.sender == owner,\"Not a Owner\");\r\n        (,bool flag) = getIndexGuardian(_address);\r\n        require(flag,\"Guardian already Exists!\");\r\n        _;\r\n    }\r\n\r\n    function getIndexGuardian(address _address) view internal returns(int, bool){\r\n        int index = -1;\r\n        bool flag = true;\r\n        for(uint i=0;i<guardianCounter;i++){\r\n            if(guardians[i].guardian == _address){\r\n                index = int(i);\r\n                flag = false;\r\n            }\r\n        }\r\n        return (index,flag);\r\n    }\r\n\r\n    // ------------------------------------------------------------\r\n\r\n    function setGuardians(address _address) public isGuardian(_address){\r\n        require(guardianCounter < maxGuardian,\"Guardian count cann't more than 5\");\r\n        guardians[guardianCounter].guardian = _address;\r\n        guardianCounter++;\r\n    }\r\n\r\n    // ------------------------------------------------------------\r\n\r\n    function updateGuardians(address _address, uint _index) public isGuardian(_address){\r\n        require(_index < guardianCounter,\"Index count cann't more than or equal to guardianCounter\");\r\n        guardians[_index].guardian = _address;\r\n    }\r\n\r\n    // ------------------------------------------------------------\r\n\r\n    function setIsGuardianProposed(address _address) public{\r\n        (int index,) = getIndexGuardian(_address);\r\n        require(index >= 0,\"Proposed is not Guardian\");\r\n        require(!guardians[uint(index)].isGuardianProposed,\"Guardian already Proposed!\");\r\n        guardians[uint(index)].isGuardianProposed = true;\r\n    }\r\n\r\n    // ------------------------------------------------------------\r\n\r\n    function resetAllGuardianProposed() public{\r\n        for(uint i=0;i<guardianCounter;i++){\r\n            if(guardians[uint(i)].isGuardianProposed){\r\n                guardians[uint(i)].isGuardianProposed = false;\r\n            }\r\n        }\r\n    }\r\n\r\n    // ------------------------------------------------------------\r\n\r\n}",
  "sourcePath": "C:\\Users\\hp\\Desktop\\Blockchain\\05-SharedWallet\\contracts\\Guardian.sol",
  "compiler": {
    "name": "solc",
    "version": "0.8.19+commit.7dd6d404.Emscripten.clang"
  },
  "schemaVersion": "3.4.14",
  "updatedAt": "2023-07-11T17:32:01.813Z",
  "devdoc": {
    "kind": "dev",
    "methods": {},
    "version": 1
  },
  "userdoc": {
    "kind": "user",
    "methods": {},
    "version": 1
  }
}