{
  "contractName": "NewOwner",
  "abi": [
    {
      "inputs": [],
      "name": "guardianCounter",
      "outputs": [
        {
          "internalType": "uint256",
          "name": "",
          "type": "uint256"
        }
      ],
      "stateMutability": "view",
      "type": "function"
    },
    {
      "inputs": [
        {
          "internalType": "uint256",
          "name": "",
          "type": "uint256"
        }
      ],
      "name": "guardians",
      "outputs": [
        {
          "internalType": "address",
          "name": "guardian",
          "type": "address"
        },
        {
          "internalType": "bool",
          "name": "isGuardianProposed",
          "type": "bool"
        }
      ],
      "stateMutability": "view",
      "type": "function"
    },
    {
      "inputs": [],
      "name": "owner",
      "outputs": [
        {
          "internalType": "address",
          "name": "",
          "type": "address"
        }
      ],
      "stateMutability": "view",
      "type": "function"
    },
    {
      "inputs": [],
      "name": "resetAllGuardianProposed",
      "outputs": [],
      "stateMutability": "nonpayable",
      "type": "function"
    },
    {
      "inputs": [
        {
          "internalType": "address",
          "name": "_address",
          "type": "address"
        }
      ],
      "name": "setGuardians",
      "outputs": [],
      "stateMutability": "nonpayable",
      "type": "function"
    },
    {
      "inputs": [
        {
          "internalType": "address",
          "name": "_address",
          "type": "address"
        }
      ],
      "name": "setIsGuardianProposed",
      "outputs": [],
      "stateMutability": "nonpayable",
      "type": "function"
    },
    {
      "inputs": [
        {
          "internalType": "address",
          "name": "_address",
          "type": "address"
        },
        {
          "internalType": "uint256",
          "name": "_index",
          "type": "uint256"
        }
      ],
      "name": "updateGuardians",
      "outputs": [],
      "stateMutability": "nonpayable",
      "type": "function"
    },
    {
      "inputs": [
        {
          "internalType": "address",
          "name": "_newOwner",
          "type": "address"
        }
      ],
      "name": "setNewOwner",
      "outputs": [],
      "stateMutability": "nonpayable",
      "type": "function"
    }
  ],
  "bytecode": "0x60806040526005600155600360055534801561001a57600080fd5b50336000806101000a81548173ffffffffffffffffffffffffffffffffffffffff021916908373ffffffffffffffffffffffffffffffffffffffff160217905550610ea28061006a6000396000f3fe608060405234801561001057600080fd5b50600436106100885760003560e01c8063dac1b3031161005b578063dac1b303146100ef578063dd4bad7f1461010b578063f560c73414610127578063f5a1f5b41461015857610088565b806340aad3cd1461008d5780635c03f7ac146100975780636f29e7c2146100b55780638da5cb5b146100d1575b600080fd5b610095610174565b005b61009f6101f0565b6040516100ac91906108f2565b60405180910390f35b6100cf60048036038101906100ca9190610970565b6101f6565b005b6100d96102df565b6040516100e691906109ac565b60405180910390f35b61010960048036038101906101049190610970565b610303565b005b610125600480360381019061012091906109f3565b61049a565b005b610141600480360381019061013c9190610a33565b610616565b60405161014f929190610a7b565b60405180910390f35b610172600480360381019061016d9190610970565b610667565b005b60005b6002548110156101ed576003600082815260200190815260200160002060000160149054906101000a900460ff16156101da5760006003600083815260200190815260200160002060000160146101000a81548160ff0219169083151502179055505b80806101e590610ad3565b915050610177565b50565b60025481565b60006102018261080c565b5090506000811215610248576040517f08c379a000000000000000000000000000000000000000000000000000000000815260040161023f90610b78565b60405180910390fd5b6003600082815260200190815260200160002060000160149054906101000a900460ff16156102ac576040517f08c379a00000000000000000000000000000000000000000000000000000000081526004016102a390610be4565b60405180910390fd5b60016003600083815260200190815260200160002060000160146101000a81548160ff0219169083151502179055505050565b60008054906101000a900473ffffffffffffffffffffffffffffffffffffffff1681565b8060008054906101000a900473ffffffffffffffffffffffffffffffffffffffff1673ffffffffffffffffffffffffffffffffffffffff163373ffffffffffffffffffffffffffffffffffffffff1614610392576040517f08c379a000000000000000000000000000000000000000000000000000000000815260040161038990610c50565b60405180910390fd5b600061039d8261080c565b915050806103e0576040517f08c379a00000000000000000000000000000000000000000000000000000000081526004016103d790610cbc565b60405180910390fd5b60015460025410610426576040517f08c379a000000000000000000000000000000000000000000000000000000000815260040161041d90610d4e565b60405180910390fd5b8260036000600254815260200190815260200160002060000160006101000a81548173ffffffffffffffffffffffffffffffffffffffff021916908373ffffffffffffffffffffffffffffffffffffffff1602179055506002600081548092919061049090610ad3565b9190505550505050565b8160008054906101000a900473ffffffffffffffffffffffffffffffffffffffff1673ffffffffffffffffffffffffffffffffffffffff163373ffffffffffffffffffffffffffffffffffffffff1614610529576040517f08c379a000000000000000000000000000000000000000000000000000000000815260040161052090610c50565b60405180910390fd5b60006105348261080c565b91505080610577576040517f08c379a000000000000000000000000000000000000000000000000000000000815260040161056e90610cbc565b60405180910390fd5b60025483106105bb576040517f08c379a00000000000000000000000000000000000000000000000000000000081526004016105b290610de0565b60405180910390fd5b836003600085815260200190815260200160002060000160006101000a81548173ffffffffffffffffffffffffffffffffffffffff021916908373ffffffffffffffffffffffffffffffffffffffff16021790555050505050565b60036020528060005260406000206000915090508060000160009054906101000a900473ffffffffffffffffffffffffffffffffffffffff16908060000160149054906101000a900460ff16905082565b60008054906101000a900473ffffffffffffffffffffffffffffffffffffffff1673ffffffffffffffffffffffffffffffffffffffff168173ffffffffffffffffffffffffffffffffffffffff16036106f5576040517f08c379a00000000000000000000000000000000000000000000000000000000081526004016106ec90610e4c565b60405180910390fd5b8073ffffffffffffffffffffffffffffffffffffffff16600460009054906101000a900473ffffffffffffffffffffffffffffffffffffffff1673ffffffffffffffffffffffffffffffffffffffff161461079c5780600460006101000a81548173ffffffffffffffffffffffffffffffffffffffff021916908373ffffffffffffffffffffffffffffffffffffffff160217905550610793610174565b60006006819055505b6107a5336101f6565b600660008154809291906107b890610ad3565b91905055506005546006541061080957806000806101000a81548173ffffffffffffffffffffffffffffffffffffffff021916908373ffffffffffffffffffffffffffffffffffffffff1602179055505b50565b60008060007fffffffffffffffffffffffffffffffffffffffffffffffffffffffffffffffff905060006001905060005b6002548110156108cb578573ffffffffffffffffffffffffffffffffffffffff166003600083815260200190815260200160002060000160009054906101000a900473ffffffffffffffffffffffffffffffffffffffff1673ffffffffffffffffffffffffffffffffffffffff16036108b857809250600091505b80806108c390610ad3565b91505061083d565b508181935093505050915091565b6000819050919050565b6108ec816108d9565b82525050565b600060208201905061090760008301846108e3565b92915050565b600080fd5b600073ffffffffffffffffffffffffffffffffffffffff82169050919050565b600061093d82610912565b9050919050565b61094d81610932565b811461095857600080fd5b50565b60008135905061096a81610944565b92915050565b6000602082840312156109865761098561090d565b5b60006109948482850161095b565b91505092915050565b6109a681610932565b82525050565b60006020820190506109c1600083018461099d565b92915050565b6109d0816108d9565b81146109db57600080fd5b50565b6000813590506109ed816109c7565b92915050565b60008060408385031215610a0a57610a0961090d565b5b6000610a188582860161095b565b9250506020610a29858286016109de565b9150509250929050565b600060208284031215610a4957610a4861090d565b5b6000610a57848285016109de565b91505092915050565b60008115159050919050565b610a7581610a60565b82525050565b6000604082019050610a90600083018561099d565b610a9d6020830184610a6c565b9392505050565b7f4e487b7100000000000000000000000000000000000000000000000000000000600052601160045260246000fd5b6000610ade826108d9565b91507fffffffffffffffffffffffffffffffffffffffffffffffffffffffffffffffff8203610b1057610b0f610aa4565b5b600182019050919050565b600082825260208201905092915050565b7f50726f706f736564206973206e6f7420477561726469616e0000000000000000600082015250565b6000610b62601883610b1b565b9150610b6d82610b2c565b602082019050919050565b60006020820190508181036000830152610b9181610b55565b9050919050565b7f477561726469616e20616c72656164792050726f706f73656421000000000000600082015250565b6000610bce601a83610b1b565b9150610bd982610b98565b602082019050919050565b60006020820190508181036000830152610bfd81610bc1565b9050919050565b7f4e6f742061204f776e6572000000000000000000000000000000000000000000600082015250565b6000610c3a600b83610b1b565b9150610c4582610c04565b602082019050919050565b60006020820190508181036000830152610c6981610c2d565b9050919050565b7f477561726469616e20616c726561647920457869737473210000000000000000600082015250565b6000610ca6601883610b1b565b9150610cb182610c70565b602082019050919050565b60006020820190508181036000830152610cd581610c99565b9050919050565b7f477561726469616e20636f756e742063616e6e2774206d6f7265207468616e2060008201527f3500000000000000000000000000000000000000000000000000000000000000602082015250565b6000610d38602183610b1b565b9150610d4382610cdc565b604082019050919050565b60006020820190508181036000830152610d6781610d2b565b9050919050565b7f496e64657820636f756e742063616e6e2774206d6f7265207468616e206f722060008201527f657175616c20746f20677561726469616e436f756e7465720000000000000000602082015250565b6000610dca603883610b1b565b9150610dd582610d6e565b604082019050919050565b60006020820190508181036000830152610df981610dbd565b9050919050565b7f486520697320616c726561647920616e204f776e657221000000000000000000600082015250565b6000610e36601783610b1b565b9150610e4182610e00565b602082019050919050565b60006020820190508181036000830152610e6581610e29565b905091905056fea2646970667358221220c80e4af2189bcaa497f17d3c360bfafd15ec87060248b4078038a9a9585a448064736f6c63430008130033",
  "immutableReferences": {},
  "source": "// SPDX-License-Identifier: UNLICENSED\r\n\r\npragma solidity 0.8.19;\r\n\r\nimport \"./Guardian.sol\";\r\n\r\ncontract NewOwner is Guardian{\r\n\r\n    address newOwner;\r\n\r\n    uint maxProposedGuardianCount = 3;\r\n    uint proposedGuardianCounter;\r\n\r\n    function setNewOwner(address _newOwner) public{\r\n        require(_newOwner != owner,\"He is already an Owner!\");\r\n        if (newOwner!=_newOwner){\r\n            newOwner = _newOwner;\r\n            resetAllGuardianProposed();\r\n            proposedGuardianCounter = 0;\r\n        }\r\n        setIsGuardianProposed(msg.sender);\r\n        proposedGuardianCounter++;\r\n\r\n        if(proposedGuardianCounter >= maxProposedGuardianCount){\r\n            owner = _newOwner;\r\n        }\r\n    }\r\n}",
  "sourcePath": "C:\\Users\\hp\\Desktop\\Blockchain\\05-SharedWallet\\contracts\\NewOwner.sol",
  "compiler": {
    "name": "solc",
    "version": "0.8.19+commit.7dd6d404.Emscripten.clang"
  },
  "schemaVersion": "3.4.14",
  "updatedAt": "2023-07-11T17:32:01.822Z",
  "devdoc": {
    "kind": "dev",
    "methods": {},
    "version": 1
  },
  "userdoc": {
    "kind": "user",
    "methods": {},
    "version": 1
  }
}