{
  "contractName": "ownable",
  "abi": [
    {
      "inputs": [],
      "stateMutability": "nonpayable",
      "type": "constructor"
    },
    {
      "inputs": [],
      "name": "owner",
      "outputs": [
        {
          "internalType": "address",
          "name": "",
          "type": "address"
        }
      ],
      "stateMutability": "view",
      "type": "function"
    }
  ],
  "bytecode": "0x608060405234801561001057600080fd5b50336000806101000a81548173ffffffffffffffffffffffffffffffffffffffff021916908373ffffffffffffffffffffffffffffffffffffffff16021790555060f78061005f6000396000f3fe6080604052348015600f57600080fd5b506004361060285760003560e01c80638da5cb5b14602d575b600080fd5b60336047565b604051603e919060a8565b60405180910390f35b60008054906101000a900473ffffffffffffffffffffffffffffffffffffffff1681565b600073ffffffffffffffffffffffffffffffffffffffff82169050919050565b6000609482606b565b9050919050565b60a281608b565b82525050565b600060208201905060bb6000830184609b565b9291505056fea264697066735822122075c06acd362ef0cb79de4fafd7b45c04a28b7117e640fa05fc602e5bc32b56d564736f6c63430008130033",
  "immutableReferences": {},
  "source": "//SPDX-License-Identifier: UNLICENSED\r\n\r\npragma solidity 0.8.19;\r\n\r\ncontract ownable{\r\n    address public owner;\r\n\r\n    constructor(){\r\n        owner = msg.sender;\r\n    }\r\n\r\n}",
  "sourcePath": "C:\\Users\\hp\\Desktop\\Blockchain\\05-SharedWallet\\contracts\\Ownable.sol",
  "compiler": {
    "name": "solc",
    "version": "0.8.19+commit.7dd6d404.Emscripten.clang"
  },
  "schemaVersion": "3.4.14",
  "updatedAt": "2023-07-11T17:32:01.829Z",
  "devdoc": {
    "kind": "dev",
    "methods": {},
    "version": 1
  },
  "userdoc": {
    "kind": "user",
    "methods": {},
    "version": 1
  }
}