{
  "contractName": "SharedWallet",
  "abi": [
    {
      "anonymous": false,
      "inputs": [
        {
          "indexed": true,
          "internalType": "address",
          "name": "_address",
          "type": "address"
        },
        {
          "indexed": false,
          "internalType": "uint256",
          "name": "_amount",
          "type": "uint256"
        },
        {
          "indexed": false,
          "internalType": "uint256",
          "name": "_balance",
          "type": "uint256"
        },
        {
          "indexed": false,
          "internalType": "string",
          "name": "_description",
          "type": "string"
        }
      ],
      "name": "allowanceDetails",
      "type": "event"
    },
    {
      "inputs": [],
      "name": "contractBalance",
      "outputs": [
        {
          "internalType": "uint256",
          "name": "",
          "type": "uint256"
        }
      ],
      "stateMutability": "view",
      "type": "function",
      "constant": true
    },
    {
      "inputs": [],
      "name": "guardianCounter",
      "outputs": [
        {
          "internalType": "uint256",
          "name": "",
          "type": "uint256"
        }
      ],
      "stateMutability": "view",
      "type": "function",
      "constant": true
    },
    {
      "inputs": [
        {
          "internalType": "uint256",
          "name": "",
          "type": "uint256"
        }
      ],
      "name": "guardians",
      "outputs": [
        {
          "internalType": "address",
          "name": "guardian",
          "type": "address"
        },
        {
          "internalType": "bool",
          "name": "isGuardianProposed",
          "type": "bool"
        }
      ],
      "stateMutability": "view",
      "type": "function",
      "constant": true
    },
    {
      "inputs": [],
      "name": "owner",
      "outputs": [
        {
          "internalType": "address",
          "name": "",
          "type": "address"
        }
      ],
      "stateMutability": "view",
      "type": "function",
      "constant": true
    },
    {
      "inputs": [],
      "name": "resetAllGuardianProposed",
      "outputs": [],
      "stateMutability": "nonpayable",
      "type": "function"
    },
    {
      "inputs": [
        {
          "internalType": "address",
          "name": "_address",
          "type": "address"
        }
      ],
      "name": "setGuardians",
      "outputs": [],
      "stateMutability": "nonpayable",
      "type": "function"
    },
    {
      "inputs": [
        {
          "internalType": "address",
          "name": "_address",
          "type": "address"
        }
      ],
      "name": "setIsGuardianProposed",
      "outputs": [],
      "stateMutability": "nonpayable",
      "type": "function"
    },
    {
      "inputs": [
        {
          "internalType": "address",
          "name": "_newOwner",
          "type": "address"
        }
      ],
      "name": "setNewOwner",
      "outputs": [],
      "stateMutability": "nonpayable",
      "type": "function"
    },
    {
      "inputs": [
        {
          "internalType": "address",
          "name": "_address",
          "type": "address"
        },
        {
          "internalType": "uint256",
          "name": "_index",
          "type": "uint256"
        }
      ],
      "name": "updateGuardians",
      "outputs": [],
      "stateMutability": "nonpayable",
      "type": "function"
    },
    {
      "inputs": [
        {
          "internalType": "address",
          "name": "",
          "type": "address"
        }
      ],
      "name": "wallet",
      "outputs": [
        {
          "components": [
            {
              "internalType": "uint256",
              "name": "value",
              "type": "uint256"
            },
            {
              "internalType": "uint256",
              "name": "timestamp",
              "type": "uint256"
            }
          ],
          "internalType": "struct SharedWallet.walletData",
          "name": "data",
          "type": "tuple"
        },
        {
          "internalType": "uint256",
          "name": "balance",
          "type": "uint256"
        }
      ],
      "stateMutability": "view",
      "type": "function",
      "constant": true
    },
    {
      "stateMutability": "payable",
      "type": "receive",
      "payable": true
    },
    {
      "inputs": [
        {
          "internalType": "address",
          "name": "_address",
          "type": "address"
        },
        {
          "internalType": "uint256",
          "name": "_amount",
          "type": "uint256"
        }
      ],
      "name": "setAllowance",
      "outputs": [],
      "stateMutability": "nonpayable",
      "type": "function"
    },
    {
      "inputs": [
        {
          "internalType": "address",
          "name": "_address",
          "type": "address"
        },
        {
          "internalType": "uint256",
          "name": "_amount",
          "type": "uint256"
        }
      ],
      "name": "increaseAllowance",
      "outputs": [],
      "stateMutability": "nonpayable",
      "type": "function"
    },
    {
      "inputs": [
        {
          "internalType": "address",
          "name": "_address",
          "type": "address"
        },
        {
          "internalType": "uint256",
          "name": "_amount",
          "type": "uint256"
        }
      ],
      "name": "decreaseAllowance",
      "outputs": [],
      "stateMutability": "nonpayable",
      "type": "function"
    },
    {
      "inputs": [
        {
          "internalType": "address payable",
          "name": "_to",
          "type": "address"
        },
        {
          "internalType": "uint256",
          "name": "_amount",
          "type": "uint256"
        }
      ],
      "name": "transferAllowance",
      "outputs": [],
      "stateMutability": "nonpayable",
      "type": "function"
    }
  ],
  "bytecode": "0x60806040526005600155600360055534801561001a57600080fd5b50336000806101000a81548173ffffffffffffffffffffffffffffffffffffffff021916908373ffffffffffffffffffffffffffffffffffffffff160217905550611e1c8061006a6000396000f3fe6080604052600436106100e15760003560e01c806396bd8dae1161007f578063dac1b30311610059578063dac1b303146102a8578063dd4bad7f146102d1578063f560c734146102fa578063f5a1f5b41461033857610100565b806396bd8dae14610218578063a457c2d714610241578063a56cc4391461026a57610100565b80635c03f7ac116100bb5780635c03f7ac1461016e5780636f29e7c2146101995780638b7afe2e146101c25780638da5cb5b146101ed57610100565b8063310ec4a714610105578063395093511461012e57806340aad3cd1461015757610100565b366101005734600760008282546100f8919061154d565b925050819055005b600080fd5b34801561011157600080fd5b5061012c60048036038101906101279190611610565b610361565b005b34801561013a57600080fd5b5061015560048036038101906101509190611610565b6105a4565b005b34801561016357600080fd5b5061016c6107f9565b005b34801561017a57600080fd5b50610183610875565b604051610190919061165f565b60405180910390f35b3480156101a557600080fd5b506101c060048036038101906101bb919061167a565b61087b565b005b3480156101ce57600080fd5b506101d7610964565b6040516101e4919061165f565b60405180910390f35b3480156101f957600080fd5b5061020261096a565b60405161020f91906116b6565b60405180910390f35b34801561022457600080fd5b5061023f600480360381019061023a919061170f565b61098e565b005b34801561024d57600080fd5b5061026860048036038101906102639190611610565b610c22565b005b34801561027657600080fd5b50610291600480360381019061028c919061167a565b610efc565b60405161029f92919061178d565b60405180910390f35b3480156102b457600080fd5b506102cf60048036038101906102ca919061167a565b610f3e565b005b3480156102dd57600080fd5b506102f860048036038101906102f39190611610565b6110d5565b005b34801561030657600080fd5b50610321600480360381019061031c91906117b6565b611251565b60405161032f9291906117fe565b60405180910390f35b34801561034457600080fd5b5061035f600480360381019061035a919061167a565b6112a2565b005b60008054906101000a900473ffffffffffffffffffffffffffffffffffffffff1673ffffffffffffffffffffffffffffffffffffffff163373ffffffffffffffffffffffffffffffffffffffff16146103ef576040517f08c379a00000000000000000000000000000000000000000000000000000000081526004016103e690611884565b60405180910390fd5b60008054906101000a900473ffffffffffffffffffffffffffffffffffffffff1673ffffffffffffffffffffffffffffffffffffffff168273ffffffffffffffffffffffffffffffffffffffff160361047d576040517f08c379a0000000000000000000000000000000000000000000000000000000008152600401610474906118f0565b60405180910390fd5b80600860008473ffffffffffffffffffffffffffffffffffffffff1673ffffffffffffffffffffffffffffffffffffffff1681526020019081526020016000206002018190555080600860008473ffffffffffffffffffffffffffffffffffffffff1673ffffffffffffffffffffffffffffffffffffffff168152602001908152602001600020600001600001819055508173ffffffffffffffffffffffffffffffffffffffff167f58a4020f6f8907e904125e4bba6bf359efe6189b93b93da7de16a350305c7b6b82600860008673ffffffffffffffffffffffffffffffffffffffff1673ffffffffffffffffffffffffffffffffffffffff1681526020019081526020016000206002015460405161059892919061195c565b60405180910390a25050565b60008054906101000a900473ffffffffffffffffffffffffffffffffffffffff1673ffffffffffffffffffffffffffffffffffffffff163373ffffffffffffffffffffffffffffffffffffffff1614610632576040517f08c379a000000000000000000000000000000000000000000000000000000000815260040161062990611884565b60405180910390fd5b60008054906101000a900473ffffffffffffffffffffffffffffffffffffffff1673ffffffffffffffffffffffffffffffffffffffff168273ffffffffffffffffffffffffffffffffffffffff16036106c0576040517f08c379a00000000000000000000000000000000000000000000000000000000081526004016106b7906118f0565b60405180910390fd5b80600860008473ffffffffffffffffffffffffffffffffffffffff1673ffffffffffffffffffffffffffffffffffffffff1681526020019081526020016000206002016000828254610712919061154d565b9250508190555080600860008473ffffffffffffffffffffffffffffffffffffffff1673ffffffffffffffffffffffffffffffffffffffff168152602001908152602001600020600001600001819055508173ffffffffffffffffffffffffffffffffffffffff167f58a4020f6f8907e904125e4bba6bf359efe6189b93b93da7de16a350305c7b6b82600860008673ffffffffffffffffffffffffffffffffffffffff1673ffffffffffffffffffffffffffffffffffffffff168152602001908152602001600020600201546040516107ed92919061195c565b60405180910390a25050565b60005b600254811015610872576003600082815260200190815260200160002060000160149054906101000a900460ff161561085f5760006003600083815260200190815260200160002060000160146101000a81548160ff0219169083151502179055505b808061086a90611998565b9150506107fc565b50565b60025481565b600061088682611447565b50905060008112156108cd576040517f08c379a00000000000000000000000000000000000000000000000000000000081526004016108c490611a2c565b60405180910390fd5b6003600082815260200190815260200160002060000160149054906101000a900460ff1615610931576040517f08c379a000000000000000000000000000000000000000000000000000000000815260040161092890611a98565b60405180910390fd5b60016003600083815260200190815260200160002060000160146101000a81548160ff0219169083151502179055505050565b60075481565b60008054906101000a900473ffffffffffffffffffffffffffffffffffffffff1681565b8060075410156109d3576040517f08c379a00000000000000000000000000000000000000000000000000000000081526004016109ca90611b2a565b60405180910390fd5b60008054906101000a900473ffffffffffffffffffffffffffffffffffffffff1673ffffffffffffffffffffffffffffffffffffffff163373ffffffffffffffffffffffffffffffffffffffff1603610a87578060076000828254610a389190611b4a565b925050819055508173ffffffffffffffffffffffffffffffffffffffff166108fc829081150290604051600060405180830381858888f19350505050158015610a85573d6000803e3d6000fd5b505b80600860003373ffffffffffffffffffffffffffffffffffffffff1673ffffffffffffffffffffffffffffffffffffffff1681526020019081526020016000206002015410610c1e5780600860003373ffffffffffffffffffffffffffffffffffffffff1673ffffffffffffffffffffffffffffffffffffffff1681526020019081526020016000206002016000828254610b229190611b4a565b9250508190555080600860003373ffffffffffffffffffffffffffffffffffffffff1673ffffffffffffffffffffffffffffffffffffffff1681526020019081526020016000206000016000018190555042600860003373ffffffffffffffffffffffffffffffffffffffff1673ffffffffffffffffffffffffffffffffffffffff168152602001908152602001600020600001600101819055508060076000828254610bcf9190611b4a565b925050819055508173ffffffffffffffffffffffffffffffffffffffff166108fc829081150290604051600060405180830381858888f19350505050158015610c1c573d6000803e3d6000fd5b505b5050565b60008054906101000a900473ffffffffffffffffffffffffffffffffffffffff1673ffffffffffffffffffffffffffffffffffffffff163373ffffffffffffffffffffffffffffffffffffffff1614610cb0576040517f08c379a0000000000000000000000000000000000000000000000000000000008152600401610ca790611884565b60405180910390fd5b60008054906101000a900473ffffffffffffffffffffffffffffffffffffffff1673ffffffffffffffffffffffffffffffffffffffff168273ffffffffffffffffffffffffffffffffffffffff1603610d3e576040517f08c379a0000000000000000000000000000000000000000000000000000000008152600401610d35906118f0565b60405180910390fd5b80600860008473ffffffffffffffffffffffffffffffffffffffff1673ffffffffffffffffffffffffffffffffffffffff168152602001908152602001600020600201541015610dc3576040517f08c379a0000000000000000000000000000000000000000000000000000000008152600401610dba90611bca565b60405180910390fd5b80600860008473ffffffffffffffffffffffffffffffffffffffff1673ffffffffffffffffffffffffffffffffffffffff1681526020019081526020016000206002016000828254610e159190611b4a565b9250508190555080600860008473ffffffffffffffffffffffffffffffffffffffff1673ffffffffffffffffffffffffffffffffffffffff168152602001908152602001600020600001600001819055508173ffffffffffffffffffffffffffffffffffffffff167f58a4020f6f8907e904125e4bba6bf359efe6189b93b93da7de16a350305c7b6b82600860008673ffffffffffffffffffffffffffffffffffffffff1673ffffffffffffffffffffffffffffffffffffffff16815260200190815260200160002060020154604051610ef092919061195c565b60405180910390a25050565b60086020528060005260406000206000915090508060000160405180604001604052908160008201548152602001600182015481525050908060020154905082565b8060008054906101000a900473ffffffffffffffffffffffffffffffffffffffff1673ffffffffffffffffffffffffffffffffffffffff163373ffffffffffffffffffffffffffffffffffffffff1614610fcd576040517f08c379a0000000000000000000000000000000000000000000000000000000008152600401610fc490611884565b60405180910390fd5b6000610fd882611447565b9150508061101b576040517f08c379a000000000000000000000000000000000000000000000000000000000815260040161101290611c36565b60405180910390fd5b60015460025410611061576040517f08c379a000000000000000000000000000000000000000000000000000000000815260040161105890611cc8565b60405180910390fd5b8260036000600254815260200190815260200160002060000160006101000a81548173ffffffffffffffffffffffffffffffffffffffff021916908373ffffffffffffffffffffffffffffffffffffffff160217905550600260008154809291906110cb90611998565b9190505550505050565b8160008054906101000a900473ffffffffffffffffffffffffffffffffffffffff1673ffffffffffffffffffffffffffffffffffffffff163373ffffffffffffffffffffffffffffffffffffffff1614611164576040517f08c379a000000000000000000000000000000000000000000000000000000000815260040161115b90611884565b60405180910390fd5b600061116f82611447565b915050806111b2576040517f08c379a00000000000000000000000000000000000000000000000000000000081526004016111a990611c36565b60405180910390fd5b60025483106111f6576040517f08c379a00000000000000000000000000000000000000000000000000000000081526004016111ed90611d5a565b60405180910390fd5b836003600085815260200190815260200160002060000160006101000a81548173ffffffffffffffffffffffffffffffffffffffff021916908373ffffffffffffffffffffffffffffffffffffffff16021790555050505050565b60036020528060005260406000206000915090508060000160009054906101000a900473ffffffffffffffffffffffffffffffffffffffff16908060000160149054906101000a900460ff16905082565b60008054906101000a900473ffffffffffffffffffffffffffffffffffffffff1673ffffffffffffffffffffffffffffffffffffffff168173ffffffffffffffffffffffffffffffffffffffff1603611330576040517f08c379a000000000000000000000000000000000000000000000000000000000815260040161132790611dc6565b60405180910390fd5b8073ffffffffffffffffffffffffffffffffffffffff16600460009054906101000a900473ffffffffffffffffffffffffffffffffffffffff1673ffffffffffffffffffffffffffffffffffffffff16146113d75780600460006101000a81548173ffffffffffffffffffffffffffffffffffffffff021916908373ffffffffffffffffffffffffffffffffffffffff1602179055506113ce6107f9565b60006006819055505b6113e03361087b565b600660008154809291906113f390611998565b91905055506005546006541061144457806000806101000a81548173ffffffffffffffffffffffffffffffffffffffff021916908373ffffffffffffffffffffffffffffffffffffffff1602179055505b50565b60008060007fffffffffffffffffffffffffffffffffffffffffffffffffffffffffffffffff905060006001905060005b600254811015611506578573ffffffffffffffffffffffffffffffffffffffff166003600083815260200190815260200160002060000160009054906101000a900473ffffffffffffffffffffffffffffffffffffffff1673ffffffffffffffffffffffffffffffffffffffff16036114f357809250600091505b80806114fe90611998565b915050611478565b508181935093505050915091565b6000819050919050565b7f4e487b7100000000000000000000000000000000000000000000000000000000600052601160045260246000fd5b600061155882611514565b915061156383611514565b925082820190508082111561157b5761157a61151e565b5b92915050565b600080fd5b600073ffffffffffffffffffffffffffffffffffffffff82169050919050565b60006115b182611586565b9050919050565b6115c1816115a6565b81146115cc57600080fd5b50565b6000813590506115de816115b8565b92915050565b6115ed81611514565b81146115f857600080fd5b50565b60008135905061160a816115e4565b92915050565b6000806040838503121561162757611626611581565b5b6000611635858286016115cf565b9250506020611646858286016115fb565b9150509250929050565b61165981611514565b82525050565b60006020820190506116746000830184611650565b92915050565b6000602082840312156116905761168f611581565b5b600061169e848285016115cf565b91505092915050565b6116b0816115a6565b82525050565b60006020820190506116cb60008301846116a7565b92915050565b60006116dc82611586565b9050919050565b6116ec816116d1565b81146116f757600080fd5b50565b600081359050611709816116e3565b92915050565b6000806040838503121561172657611725611581565b5b6000611734858286016116fa565b9250506020611745858286016115fb565b9150509250929050565b61175881611514565b82525050565b604082016000820151611774600085018261174f565b506020820151611787602085018261174f565b50505050565b60006060820190506117a2600083018561175e565b6117af6040830184611650565b9392505050565b6000602082840312156117cc576117cb611581565b5b60006117da848285016115fb565b91505092915050565b60008115159050919050565b6117f8816117e3565b82525050565b600060408201905061181360008301856116a7565b61182060208301846117ef565b9392505050565b600082825260208201905092915050565b7f4e6f742061204f776e6572000000000000000000000000000000000000000000600082015250565b600061186e600b83611827565b915061187982611838565b602082019050919050565b6000602082019050818103600083015261189d81611861565b9050919050565b7f416464726573732073686f756c64204e6f742062652061204f776e6572000000600082015250565b60006118da601d83611827565b91506118e5826118a4565b602082019050919050565b60006020820190508181036000830152611909816118cd565b9050919050565b7f536574206e657720416c6c6f77616e6365000000000000000000000000000000600082015250565b6000611946601183611827565b915061195182611910565b602082019050919050565b60006060820190506119716000830185611650565b61197e6020830184611650565b818103604083015261198f81611939565b90509392505050565b60006119a382611514565b91507fffffffffffffffffffffffffffffffffffffffffffffffffffffffffffffffff82036119d5576119d461151e565b5b600182019050919050565b7f50726f706f736564206973206e6f7420477561726469616e0000000000000000600082015250565b6000611a16601883611827565b9150611a21826119e0565b602082019050919050565b60006020820190508181036000830152611a4581611a09565b9050919050565b7f477561726469616e20616c72656164792050726f706f73656421000000000000600082015250565b6000611a82601a83611827565b9150611a8d82611a4c565b602082019050919050565b60006020820190508181036000830152611ab181611a75565b9050919050565b7f4e6f742073756666696369656e742062616c616e636520696e20636f6e74726160008201527f6374210000000000000000000000000000000000000000000000000000000000602082015250565b6000611b14602383611827565b9150611b1f82611ab8565b604082019050919050565b60006020820190508181036000830152611b4381611b07565b9050919050565b6000611b5582611514565b9150611b6083611514565b9250828203905081811115611b7857611b7761151e565b5b92915050565b7f42616c616e6365206973206c657373207468616e20616d6f756e740000000000600082015250565b6000611bb4601b83611827565b9150611bbf82611b7e565b602082019050919050565b60006020820190508181036000830152611be381611ba7565b9050919050565b7f477561726469616e20616c726561647920457869737473210000000000000000600082015250565b6000611c20601883611827565b9150611c2b82611bea565b602082019050919050565b60006020820190508181036000830152611c4f81611c13565b9050919050565b7f477561726469616e20636f756e742063616e6e2774206d6f7265207468616e2060008201527f3500000000000000000000000000000000000000000000000000000000000000602082015250565b6000611cb2602183611827565b9150611cbd82611c56565b604082019050919050565b60006020820190508181036000830152611ce181611ca5565b9050919050565b7f496e64657820636f756e742063616e6e2774206d6f7265207468616e206f722060008201527f657175616c20746f20677561726469616e436f756e7465720000000000000000602082015250565b6000611d44603883611827565b9150611d4f82611ce8565b604082019050919050565b60006020820190508181036000830152611d7381611d37565b9050919050565b7f486520697320616c726561647920616e204f776e657221000000000000000000600082015250565b6000611db0601783611827565b9150611dbb82611d7a565b602082019050919050565b60006020820190508181036000830152611ddf81611da3565b905091905056fea2646970667358221220d02a74ba17e956743ba1346356a06e84c4c1070ec740478f0d2e27346c7fe77a64736f6c63430008130033",
  "immutableReferences": {},
  "source": "//SPDX-License-Identifier: UNLICENSED\r\n\r\npragma solidity 0.8.19;\r\n\r\nimport \"./NewOwner.sol\";\r\n\r\ncontract SharedWallet is NewOwner{\r\n\r\n    // ------------------------------------------------------------\r\n\r\n    uint public contractBalance;\r\n\r\n    struct walletData{\r\n        uint value;\r\n        uint timestamp;\r\n    }\r\n\r\n    struct walletBalance{\r\n        walletData data;\r\n        uint balance;\r\n    }\r\n\r\n    mapping (address=>walletBalance) public wallet;\r\n\r\n    event allowanceDetails(\r\n        address indexed _address, \r\n        uint _amount, \r\n        uint _balance, \r\n        string _description\r\n    );\r\n\r\n    // ------------------------------------------------------------\r\n\r\n    function setAllowance(address _address, uint _amount) public{\r\n        require(msg.sender == owner,\"Not a Owner\");\r\n        require(_address != owner,\"Address should Not be a Owner\");\r\n        wallet[_address].balance = _amount;\r\n        wallet[_address].data.value = _amount;\r\n\r\n        emit allowanceDetails(\r\n            _address, \r\n            _amount, \r\n            wallet[_address].balance, \r\n            \"Set new Allowance\"\r\n        );\r\n    }\r\n\r\n    // ------------------------------------------------------------\r\n\r\n    function increaseAllowance(address _address, uint _amount) public{\r\n        require(msg.sender == owner,\"Not a Owner\");\r\n        require(_address != owner,\"Address should Not be a Owner\");\r\n        wallet[_address].balance += _amount;\r\n        wallet[_address].data.value = _amount;\r\n\r\n        emit allowanceDetails(\r\n            _address, \r\n            _amount, \r\n            wallet[_address].balance, \r\n            \"Set new Allowance\"\r\n        );\r\n    }\r\n\r\n    // ------------------------------------------------------------\r\n\r\n    function decreaseAllowance(address _address, uint _amount) public{\r\n        require(msg.sender == owner,\"Not a Owner\");\r\n        require(_address != owner,\"Address should Not be a Owner\");\r\n        require(wallet[_address].balance >= _amount,\"Balance is less than amount\");\r\n        wallet[_address].balance -= _amount;\r\n        wallet[_address].data.value = _amount;\r\n\r\n        emit allowanceDetails(\r\n            _address, \r\n            _amount, \r\n            wallet[_address].balance, \r\n            \"Set new Allowance\"\r\n        );\r\n    }\r\n\r\n    // ------------------------------------------------------------\r\n\r\n    function transferAllowance(address payable _to, uint _amount) public{\r\n        require(contractBalance >= _amount,\"Not sufficient balance in contract!\");\r\n        if(msg.sender == owner){\r\n            contractBalance -= _amount;\r\n            _to.transfer(_amount);\r\n        }\r\n        if(wallet[msg.sender].balance >= _amount){\r\n            wallet[msg.sender].balance -= _amount;\r\n            wallet[msg.sender].data.value = _amount;\r\n            wallet[msg.sender].data.timestamp = block.timestamp;\r\n            contractBalance -= _amount;\r\n            _to.transfer(_amount);\r\n        }\r\n    }\r\n\r\n    // ------------------------------------------------------------\r\n\r\n    receive() external payable{\r\n        contractBalance += msg.value;\r\n    }\r\n\r\n    // ------------------------------------------------------------\r\n\r\n}",
  "sourcePath": "C:\\Users\\hp\\Desktop\\Blockchain\\05-SharedWallet\\contracts\\SharedWallet.sol",
  "compiler": {
    "name": "solc",
    "version": "0.8.19+commit.7dd6d404.Emscripten.clang"
  },
  "schemaVersion": "3.4.14",
  "updatedAt": "2023-07-11T17:32:07.529Z",
  "networkType": "ethereum",
  "devdoc": {
    "kind": "dev",
    "methods": {},
    "version": 1
  },
  "userdoc": {
    "kind": "user",
    "methods": {},
    "version": 1
  }
}